{
  "_format": "hh-sol-artifact-1",
  "contractName": "NFTMarketplace",
  "sourceName": "contracts/NFTMarketplace.sol",
  "abi": [
    {
      "inputs": [],
      "stateMutability": "nonpayable",
      "type": "constructor"
    },
    {
      "anonymous": false,
      "inputs": [
        {
          "indexed": true,
          "internalType": "address",
          "name": "owner",
          "type": "address"
        },
        {
          "indexed": true,
          "internalType": "address",
          "name": "approved",
          "type": "address"
        },
        {
          "indexed": true,
          "internalType": "uint256",
          "name": "tokenId",
          "type": "uint256"
        }
      ],
      "name": "Approval",
      "type": "event"
    },
    {
      "anonymous": false,
      "inputs": [
        {
          "indexed": true,
          "internalType": "address",
          "name": "owner",
          "type": "address"
        },
        {
          "indexed": true,
          "internalType": "address",
          "name": "operator",
          "type": "address"
        },
        {
          "indexed": false,
          "internalType": "bool",
          "name": "approved",
          "type": "bool"
        }
      ],
      "name": "ApprovalForAll",
      "type": "event"
    },
    {
      "anonymous": false,
      "inputs": [
        {
          "indexed": true,
          "internalType": "address",
          "name": "from",
          "type": "address"
        },
        {
          "indexed": true,
          "internalType": "address",
          "name": "to",
          "type": "address"
        },
        {
          "indexed": true,
          "internalType": "uint256",
          "name": "tokenId",
          "type": "uint256"
        }
      ],
      "name": "Transfer",
      "type": "event"
    },
    {
      "anonymous": false,
      "inputs": [
        {
          "indexed": true,
          "internalType": "uint256",
          "name": "tokenId",
          "type": "uint256"
        },
        {
          "indexed": false,
          "internalType": "address",
          "name": "seller",
          "type": "address"
        },
        {
          "indexed": false,
          "internalType": "address",
          "name": "owner",
          "type": "address"
        },
        {
          "indexed": false,
          "internalType": "uint256",
          "name": "price",
          "type": "uint256"
        },
        {
          "indexed": false,
          "internalType": "bool",
          "name": "sold",
          "type": "bool"
        }
      ],
      "name": "idMarketItemCreated",
      "type": "event"
    },
    {
      "inputs": [
        {
          "internalType": "address",
          "name": "to",
          "type": "address"
        },
        {
          "internalType": "uint256",
          "name": "tokenId",
          "type": "uint256"
        }
      ],
      "name": "approve",
      "outputs": [],
      "stateMutability": "nonpayable",
      "type": "function"
    },
    {
      "inputs": [
        {
          "internalType": "address",
          "name": "owner",
          "type": "address"
        }
      ],
      "name": "balanceOf",
      "outputs": [
        {
          "internalType": "uint256",
          "name": "",
          "type": "uint256"
        }
      ],
      "stateMutability": "view",
      "type": "function"
    },
    {
      "inputs": [
        {
          "internalType": "uint256",
          "name": "tokenId",
          "type": "uint256"
        }
      ],
      "name": "createMarketSale",
      "outputs": [],
      "stateMutability": "payable",
      "type": "function"
    },
    {
      "inputs": [
        {
          "internalType": "string",
          "name": "tokenURI",
          "type": "string"
        },
        {
          "internalType": "uint256",
          "name": "price",
          "type": "uint256"
        }
      ],
      "name": "createToken",
      "outputs": [
        {
          "internalType": "uint256",
          "name": "",
          "type": "uint256"
        }
      ],
      "stateMutability": "payable",
      "type": "function"
    },
    {
      "inputs": [],
      "name": "fetchItemsListed",
      "outputs": [
        {
          "components": [
            {
              "internalType": "uint256",
              "name": "tokenId",
              "type": "uint256"
            },
            {
              "internalType": "address payable",
              "name": "seller",
              "type": "address"
            },
            {
              "internalType": "address payable",
              "name": "owner",
              "type": "address"
            },
            {
              "internalType": "uint256",
              "name": "price",
              "type": "uint256"
            },
            {
              "internalType": "bool",
              "name": "sold",
              "type": "bool"
            }
          ],
          "internalType": "struct NFTMarketplace.MarketItem[]",
          "name": "",
          "type": "tuple[]"
        }
      ],
      "stateMutability": "view",
      "type": "function"
    },
    {
      "inputs": [],
      "name": "fetchMarketItem",
      "outputs": [
        {
          "components": [
            {
              "internalType": "uint256",
              "name": "tokenId",
              "type": "uint256"
            },
            {
              "internalType": "address payable",
              "name": "seller",
              "type": "address"
            },
            {
              "internalType": "address payable",
              "name": "owner",
              "type": "address"
            },
            {
              "internalType": "uint256",
              "name": "price",
              "type": "uint256"
            },
            {
              "internalType": "bool",
              "name": "sold",
              "type": "bool"
            }
          ],
          "internalType": "struct NFTMarketplace.MarketItem[]",
          "name": "",
          "type": "tuple[]"
        }
      ],
      "stateMutability": "view",
      "type": "function"
    },
    {
      "inputs": [],
      "name": "fetchMyNFT",
      "outputs": [
        {
          "components": [
            {
              "internalType": "uint256",
              "name": "tokenId",
              "type": "uint256"
            },
            {
              "internalType": "address payable",
              "name": "seller",
              "type": "address"
            },
            {
              "internalType": "address payable",
              "name": "owner",
              "type": "address"
            },
            {
              "internalType": "uint256",
              "name": "price",
              "type": "uint256"
            },
            {
              "internalType": "bool",
              "name": "sold",
              "type": "bool"
            }
          ],
          "internalType": "struct NFTMarketplace.MarketItem[]",
          "name": "",
          "type": "tuple[]"
        }
      ],
      "stateMutability": "view",
      "type": "function"
    },
    {
      "inputs": [
        {
          "internalType": "uint256",
          "name": "tokenId",
          "type": "uint256"
        }
      ],
      "name": "getApproved",
      "outputs": [
        {
          "internalType": "address",
          "name": "",
          "type": "address"
        }
      ],
      "stateMutability": "view",
      "type": "function"
    },
    {
      "inputs": [],
      "name": "getListingPrice",
      "outputs": [
        {
          "internalType": "uint256",
          "name": "",
          "type": "uint256"
        }
      ],
      "stateMutability": "view",
      "type": "function"
    },
    {
      "inputs": [
        {
          "internalType": "address",
          "name": "owner",
          "type": "address"
        },
        {
          "internalType": "address",
          "name": "operator",
          "type": "address"
        }
      ],
      "name": "isApprovedForAll",
      "outputs": [
        {
          "internalType": "bool",
          "name": "",
          "type": "bool"
        }
      ],
      "stateMutability": "view",
      "type": "function"
    },
    {
      "inputs": [],
      "name": "name",
      "outputs": [
        {
          "internalType": "string",
          "name": "",
          "type": "string"
        }
      ],
      "stateMutability": "view",
      "type": "function"
    },
    {
      "inputs": [
        {
          "internalType": "uint256",
          "name": "tokenId",
          "type": "uint256"
        }
      ],
      "name": "ownerOf",
      "outputs": [
        {
          "internalType": "address",
          "name": "",
          "type": "address"
        }
      ],
      "stateMutability": "view",
      "type": "function"
    },
    {
      "inputs": [
        {
          "internalType": "uint256",
          "name": "tokenId",
          "type": "uint256"
        },
        {
          "internalType": "uint256",
          "name": "price",
          "type": "uint256"
        }
      ],
      "name": "reSellToken",
      "outputs": [],
      "stateMutability": "payable",
      "type": "function"
    },
    {
      "inputs": [
        {
          "internalType": "address",
          "name": "from",
          "type": "address"
        },
        {
          "internalType": "address",
          "name": "to",
          "type": "address"
        },
        {
          "internalType": "uint256",
          "name": "tokenId",
          "type": "uint256"
        }
      ],
      "name": "safeTransferFrom",
      "outputs": [],
      "stateMutability": "nonpayable",
      "type": "function"
    },
    {
      "inputs": [
        {
          "internalType": "address",
          "name": "from",
          "type": "address"
        },
        {
          "internalType": "address",
          "name": "to",
          "type": "address"
        },
        {
          "internalType": "uint256",
          "name": "tokenId",
          "type": "uint256"
        },
        {
          "internalType": "bytes",
          "name": "data",
          "type": "bytes"
        }
      ],
      "name": "safeTransferFrom",
      "outputs": [],
      "stateMutability": "nonpayable",
      "type": "function"
    },
    {
      "inputs": [
        {
          "internalType": "address",
          "name": "operator",
          "type": "address"
        },
        {
          "internalType": "bool",
          "name": "approved",
          "type": "bool"
        }
      ],
      "name": "setApprovalForAll",
      "outputs": [],
      "stateMutability": "nonpayable",
      "type": "function"
    },
    {
      "inputs": [
        {
          "internalType": "bytes4",
          "name": "interfaceId",
          "type": "bytes4"
        }
      ],
      "name": "supportsInterface",
      "outputs": [
        {
          "internalType": "bool",
          "name": "",
          "type": "bool"
        }
      ],
      "stateMutability": "view",
      "type": "function"
    },
    {
      "inputs": [],
      "name": "symbol",
      "outputs": [
        {
          "internalType": "string",
          "name": "",
          "type": "string"
        }
      ],
      "stateMutability": "view",
      "type": "function"
    },
    {
      "inputs": [
        {
          "internalType": "uint256",
          "name": "tokenId",
          "type": "uint256"
        }
      ],
      "name": "tokenURI",
      "outputs": [
        {
          "internalType": "string",
          "name": "",
          "type": "string"
        }
      ],
      "stateMutability": "view",
      "type": "function"
    },
    {
      "inputs": [
        {
          "internalType": "address",
          "name": "from",
          "type": "address"
        },
        {
          "internalType": "address",
          "name": "to",
          "type": "address"
        },
        {
          "internalType": "uint256",
          "name": "tokenId",
          "type": "uint256"
        }
      ],
      "name": "transferFrom",
      "outputs": [],
      "stateMutability": "nonpayable",
      "type": "function"
    },
    {
      "inputs": [
        {
          "internalType": "uint256",
          "name": "_listingPrice",
          "type": "uint256"
        }
      ],
      "name": "updateListingToken",
      "outputs": [],
      "stateMutability": "payable",
      "type": "function"
    }
  ],
  "bytecode": "0x60806040526605543df729c0006009553480156200001c57600080fd5b506040518060400160405280601381526020017f4e4654204d657461766172736520546f6b656e000000000000000000000000008152506040518060400160405280600581526020017f4d594e465400000000000000000000000000000000000000000000000000000081525081600090816200009a919062000370565b508060019081620000ac919062000370565b50505033600a60006101000a81548173ffffffffffffffffffffffffffffffffffffffff021916908373ffffffffffffffffffffffffffffffffffffffff16021790555062000457565b600081519050919050565b7f4e487b7100000000000000000000000000000000000000000000000000000000600052604160045260246000fd5b7f4e487b7100000000000000000000000000000000000000000000000000000000600052602260045260246000fd5b600060028204905060018216806200017857607f821691505b6020821081036200018e576200018d62000130565b5b50919050565b60008190508160005260206000209050919050565b60006020601f8301049050919050565b600082821b905092915050565b600060088302620001f87fffffffffffffffffffffffffffffffffffffffffffffffffffffffffffffffff82620001b9565b620002048683620001b9565b95508019841693508086168417925050509392505050565b6000819050919050565b6000819050919050565b6000620002516200024b62000245846200021c565b62000226565b6200021c565b9050919050565b6000819050919050565b6200026d8362000230565b620002856200027c8262000258565b848454620001c6565b825550505050565b600090565b6200029c6200028d565b620002a981848462000262565b505050565b5b81811015620002d157620002c560008262000292565b600181019050620002af565b5050565b601f8211156200032057620002ea8162000194565b620002f584620001a9565b8101602085101562000305578190505b6200031d6200031485620001a9565b830182620002ae565b50505b505050565b600082821c905092915050565b6000620003456000198460080262000325565b1980831691505092915050565b600062000360838362000332565b9150826002028217905092915050565b6200037b82620000f6565b67ffffffffffffffff81111562000397576200039662000101565b5b620003a382546200015f565b620003b0828285620002d5565b600060209050601f831160018114620003e85760008415620003d3578287015190505b620003df858262000352565b8655506200044f565b601f198416620003f88662000194565b60005b828110156200042257848901518255600182019150602085019450602081019050620003fb565b868310156200044257848901516200043e601f89168262000332565b8355505b6001600288020188555050505b505050505050565b61422f80620004676000396000f3fe60806040526004361061012a5760003560e01c806370a08231116100ab578063a22cb4651161006f578063a22cb465146103dd578063b88d4fde14610406578063be9af5361461042f578063c18763f71461044b578063c87b56dd14610476578063e985e9c5146104b35761012a565b806370a08231146102fe57806372b3b6201461033b57806385535b251461036b5780638fafd0211461038757806395d89b41146103b25761012a565b806312e85585116100f257806312e855851461021957806323b872dd1461024457806342842e0e1461026d57806345f8fa80146102965780636352211e146102c15761012a565b806301ffc9a71461012f57806306033b6a1461016c57806306fdde0314610188578063081812fc146101b3578063095ea7b3146101f0575b600080fd5b34801561013b57600080fd5b5061015660048036038101906101519190612a87565b6104f0565b6040516101639190612acf565b60405180910390f35b61018660048036038101906101819190612b20565b6105d2565b005b34801561019457600080fd5b5061019d610665565b6040516101aa9190612bdd565b60405180910390f35b3480156101bf57600080fd5b506101da60048036038101906101d59190612b20565b6106f7565b6040516101e79190612c40565b60405180910390f35b3480156101fc57600080fd5b5061021760048036038101906102129190612c87565b61073d565b005b34801561022557600080fd5b5061022e610854565b60405161023b9190612cd6565b60405180910390f35b34801561025057600080fd5b5061026b60048036038101906102669190612cf1565b61085e565b005b34801561027957600080fd5b50610294600480360381019061028f9190612cf1565b6108be565b005b3480156102a257600080fd5b506102ab6108de565b6040516102b89190612e9a565b60405180910390f35b3480156102cd57600080fd5b506102e860048036038101906102e39190612b20565b610bc8565b6040516102f59190612c40565b60405180910390f35b34801561030a57600080fd5b5061032560048036038101906103209190612ebc565b610c4e565b6040516103329190612cd6565b60405180910390f35b6103556004803603810190610350919061301e565b610d05565b6040516103629190612cd6565b60405180910390f35b6103856004803603810190610380919061307a565b610d47565b005b34801561039357600080fd5b5061039c610f3c565b6040516103a99190612e9a565b60405180910390f35b3480156103be57600080fd5b506103c76111a3565b6040516103d49190612bdd565b60405180910390f35b3480156103e957600080fd5b5061040460048036038101906103ff91906130e6565b611235565b005b34801561041257600080fd5b5061042d600480360381019061042891906131c7565b61124b565b005b61044960048036038101906104449190612b20565b6112ad565b005b34801561045757600080fd5b506104606114e5565b60405161046d9190612e9a565b60405180910390f35b34801561048257600080fd5b5061049d60048036038101906104989190612b20565b611759565b6040516104aa9190612bdd565b60405180910390f35b3480156104bf57600080fd5b506104da60048036038101906104d5919061324a565b61176b565b6040516104e79190612acf565b60405180910390f35b60007f80ac58cd000000000000000000000000000000000000000000000000000000007bffffffffffffffffffffffffffffffffffffffffffffffffffffffff1916827bffffffffffffffffffffffffffffffffffffffffffffffffffffffff191614806105bb57507f5b5e139f000000000000000000000000000000000000000000000000000000007bffffffffffffffffffffffffffffffffffffffffffffffffffffffff1916827bffffffffffffffffffffffffffffffffffffffffffffffffffffffff1916145b806105cb57506105ca826117ff565b5b9050919050565b600a60009054906101000a900473ffffffffffffffffffffffffffffffffffffffff1673ffffffffffffffffffffffffffffffffffffffff163373ffffffffffffffffffffffffffffffffffffffff1614610662576040517f08c379a0000000000000000000000000000000000000000000000000000000008152600401610659906132fc565b60405180910390fd5b50565b6060600080546106749061334b565b80601f01602080910402602001604051908101604052809291908181526020018280546106a09061334b565b80156106ed5780601f106106c2576101008083540402835291602001916106ed565b820191906000526020600020905b8154815290600101906020018083116106d057829003601f168201915b5050505050905090565b600061070282611869565b6004600083815260200190815260200160002060009054906101000a900473ffffffffffffffffffffffffffffffffffffffff169050919050565b600061074882610bc8565b90508073ffffffffffffffffffffffffffffffffffffffff168373ffffffffffffffffffffffffffffffffffffffff16036107b8576040517f08c379a00000000000000000000000000000000000000000000000000000000081526004016107af906133ee565b60405180910390fd5b8073ffffffffffffffffffffffffffffffffffffffff166107d76118b4565b73ffffffffffffffffffffffffffffffffffffffff1614806108065750610805816108006118b4565b61176b565b5b610845576040517f08c379a000000000000000000000000000000000000000000000000000000000815260040161083c90613480565b60405180910390fd5b61084f83836118bc565b505050565b6000600954905090565b61086f6108696118b4565b82611975565b6108ae576040517f08c379a00000000000000000000000000000000000000000000000000000000081526004016108a590613512565b60405180910390fd5b6108b9838383611a0a565b505050565b6108d98383836040518060200160405280600081525061124b565b505050565b606060006108ec6007611d03565b905060008060005b83811015610993573373ffffffffffffffffffffffffffffffffffffffff16600b60006001846109249190613561565b815260200190815260200160002060010160009054906101000a900473ffffffffffffffffffffffffffffffffffffffff1673ffffffffffffffffffffffffffffffffffffffff160361098057828061097c90613595565b9350505b808061098b90613595565b9150506108f4565b5060008267ffffffffffffffff8111156109b0576109af612ef3565b5b6040519080825280602002602001820160405280156109e957816020015b6109d66129be565b8152602001906001900390816109ce5790505b50905060005b84811015610bbd573373ffffffffffffffffffffffffffffffffffffffff16600b6000600184610a1f9190613561565b815260200190815260200160002060010160009054906101000a900473ffffffffffffffffffffffffffffffffffffffff1673ffffffffffffffffffffffffffffffffffffffff1603610baa576000600182610a7b9190613561565b90506000600b60008381526020019081526020016000206040518060a0016040529081600082015481526020016001820160009054906101000a900473ffffffffffffffffffffffffffffffffffffffff1673ffffffffffffffffffffffffffffffffffffffff1673ffffffffffffffffffffffffffffffffffffffff1681526020016002820160009054906101000a900473ffffffffffffffffffffffffffffffffffffffff1673ffffffffffffffffffffffffffffffffffffffff1673ffffffffffffffffffffffffffffffffffffffff168152602001600382015481526020016004820160009054906101000a900460ff161515151581525050905080848681518110610b8e57610b8d6135dd565b5b60200260200101819052508480610ba490613595565b95505050505b8080610bb590613595565b9150506109ef565b508094505050505090565b600080610bd483611d11565b9050600073ffffffffffffffffffffffffffffffffffffffff168173ffffffffffffffffffffffffffffffffffffffff1603610c45576040517f08c379a0000000000000000000000000000000000000000000000000000000008152600401610c3c90613658565b60405180910390fd5b80915050919050565b60008073ffffffffffffffffffffffffffffffffffffffff168273ffffffffffffffffffffffffffffffffffffffff1603610cbe576040517f08c379a0000000000000000000000000000000000000000000000000000000008152600401610cb5906136ea565b60405180910390fd5b600360008373ffffffffffffffffffffffffffffffffffffffff1673ffffffffffffffffffffffffffffffffffffffff168152602001908152602001600020549050919050565b6000610d116007611d4e565b6000610d1d6007611d03565b9050610d293382611d64565b610d338185611f81565b610d3d8184611fee565b8091505092915050565b3373ffffffffffffffffffffffffffffffffffffffff16600b600084815260200190815260200160002060020160009054906101000a900473ffffffffffffffffffffffffffffffffffffffff1673ffffffffffffffffffffffffffffffffffffffff1614610deb576040517f08c379a0000000000000000000000000000000000000000000000000000000008152600401610de29061377c565b60405180910390fd5b6009543414610e2f576040517f08c379a0000000000000000000000000000000000000000000000000000000008152600401610e26906137e8565b60405180910390fd5b6000600b600084815260200190815260200160002060040160006101000a81548160ff02191690831515021790555080600b60008481526020019081526020016000206003018190555033600b600084815260200190815260200160002060010160006101000a81548173ffffffffffffffffffffffffffffffffffffffff021916908373ffffffffffffffffffffffffffffffffffffffff16021790555030600b600084815260200190815260200160002060020160006101000a81548173ffffffffffffffffffffffffffffffffffffffff021916908373ffffffffffffffffffffffffffffffffffffffff160217905550610f2d60086121f1565b610f38333084611a0a565b5050565b60606000610f4a6007611d03565b90506000610f586008611d03565b610f626007611d03565b610f6c9190613808565b90506000808267ffffffffffffffff811115610f8b57610f8a612ef3565b5b604051908082528060200260200182016040528015610fc457816020015b610fb16129be565b815260200190600190039081610fa95790505b50905060005b84811015611198573073ffffffffffffffffffffffffffffffffffffffff16600b6000600184610ffa9190613561565b815260200190815260200160002060020160009054906101000a900473ffffffffffffffffffffffffffffffffffffffff1673ffffffffffffffffffffffffffffffffffffffff16036111855760006001826110569190613561565b90506000600b60008381526020019081526020016000209050806040518060a0016040529081600082015481526020016001820160009054906101000a900473ffffffffffffffffffffffffffffffffffffffff1673ffffffffffffffffffffffffffffffffffffffff1673ffffffffffffffffffffffffffffffffffffffff1681526020016002820160009054906101000a900473ffffffffffffffffffffffffffffffffffffffff1673ffffffffffffffffffffffffffffffffffffffff1673ffffffffffffffffffffffffffffffffffffffff168152602001600382015481526020016004820160009054906101000a900460ff161515151581525050848681518110611169576111686135dd565b5b6020026020010181905250848061117f90613595565b95505050505b808061119090613595565b915050610fca565b508094505050505090565b6060600180546111b29061334b565b80601f01602080910402602001604051908101604052809291908181526020018280546111de9061334b565b801561122b5780601f106112005761010080835404028352916020019161122b565b820191906000526020600020905b81548152906001019060200180831161120e57829003601f168201915b5050505050905090565b6112476112406118b4565b838361224d565b5050565b61125c6112566118b4565b83611975565b61129b576040517f08c379a000000000000000000000000000000000000000000000000000000000815260040161129290613512565b60405180910390fd5b6112a7848484846123b9565b50505050565b6000600b600083815260200190815260200160002060030154905080341461130a576040517f08c379a0000000000000000000000000000000000000000000000000000000008152600401611301906138ae565b60405180910390fd5b33600b600084815260200190815260200160002060020160006101000a81548173ffffffffffffffffffffffffffffffffffffffff021916908373ffffffffffffffffffffffffffffffffffffffff1602179055506001600b600084815260200190815260200160002060040160006101000a81548160ff0219169083151502179055506000600b600084815260200190815260200160002060010160006101000a81548173ffffffffffffffffffffffffffffffffffffffff021916908373ffffffffffffffffffffffffffffffffffffffff1602179055506113ee6008611d4e565b6113f9303384611a0a565b600a60009054906101000a900473ffffffffffffffffffffffffffffffffffffffff1673ffffffffffffffffffffffffffffffffffffffff166108fc6009549081150290604051600060405180830381858888f19350505050158015611463573d6000803e3d6000fd5b50600b600083815260200190815260200160002060010160009054906101000a900473ffffffffffffffffffffffffffffffffffffffff1673ffffffffffffffffffffffffffffffffffffffff166108fc349081150290604051600060405180830381858888f193505050501580156114e0573d6000803e3d6000fd5b505050565b606060006114f36007611d03565b905060008060005b8381101561159a573373ffffffffffffffffffffffffffffffffffffffff16600b600060018461152b9190613561565b815260200190815260200160002060020160009054906101000a900473ffffffffffffffffffffffffffffffffffffffff1673ffffffffffffffffffffffffffffffffffffffff160361158757828061158390613595565b9350505b808061159290613595565b9150506114fb565b5060008267ffffffffffffffff8111156115b7576115b6612ef3565b5b6040519080825280602002602001820160405280156115f057816020015b6115dd6129be565b8152602001906001900390816115d55790505b50905060005b8481101561174e57600060018261160d9190613561565b90506000600b60008381526020019081526020016000209050806040518060a0016040529081600082015481526020016001820160009054906101000a900473ffffffffffffffffffffffffffffffffffffffff1673ffffffffffffffffffffffffffffffffffffffff1673ffffffffffffffffffffffffffffffffffffffff1681526020016002820160009054906101000a900473ffffffffffffffffffffffffffffffffffffffff1673ffffffffffffffffffffffffffffffffffffffff1673ffffffffffffffffffffffffffffffffffffffff168152602001600382015481526020016004820160009054906101000a900460ff1615151515815250508486815181106117205761171f6135dd565b5b6020026020010181905250848061173690613595565b9550505050808061174690613595565b9150506115f6565b508094505050505090565b606061176482612415565b9050919050565b6000600560008473ffffffffffffffffffffffffffffffffffffffff1673ffffffffffffffffffffffffffffffffffffffff16815260200190815260200160002060008373ffffffffffffffffffffffffffffffffffffffff1673ffffffffffffffffffffffffffffffffffffffff16815260200190815260200160002060009054906101000a900460ff16905092915050565b60007f01ffc9a7000000000000000000000000000000000000000000000000000000007bffffffffffffffffffffffffffffffffffffffffffffffffffffffff1916827bffffffffffffffffffffffffffffffffffffffffffffffffffffffff1916149050919050565b61187281612527565b6118b1576040517f08c379a00000000000000000000000000000000000000000000000000000000081526004016118a890613658565b60405180910390fd5b50565b600033905090565b816004600083815260200190815260200160002060006101000a81548173ffffffffffffffffffffffffffffffffffffffff021916908373ffffffffffffffffffffffffffffffffffffffff160217905550808273ffffffffffffffffffffffffffffffffffffffff1661192f83610bc8565b73ffffffffffffffffffffffffffffffffffffffff167f8c5be1e5ebec7d5bd14f71427d1e84f3dd0314c0f7b2291e5b200ac8c7c3b92560405160405180910390a45050565b60008061198183610bc8565b90508073ffffffffffffffffffffffffffffffffffffffff168473ffffffffffffffffffffffffffffffffffffffff1614806119c357506119c2818561176b565b5b80611a0157508373ffffffffffffffffffffffffffffffffffffffff166119e9846106f7565b73ffffffffffffffffffffffffffffffffffffffff16145b91505092915050565b8273ffffffffffffffffffffffffffffffffffffffff16611a2a82610bc8565b73ffffffffffffffffffffffffffffffffffffffff1614611a80576040517f08c379a0000000000000000000000000000000000000000000000000000000008152600401611a7790613940565b60405180910390fd5b600073ffffffffffffffffffffffffffffffffffffffff168273ffffffffffffffffffffffffffffffffffffffff1603611aef576040517f08c379a0000000000000000000000000000000000000000000000000000000008152600401611ae6906139d2565b60405180910390fd5b611afc8383836001612568565b8273ffffffffffffffffffffffffffffffffffffffff16611b1c82610bc8565b73ffffffffffffffffffffffffffffffffffffffff1614611b72576040517f08c379a0000000000000000000000000000000000000000000000000000000008152600401611b6990613940565b60405180910390fd5b6004600082815260200190815260200160002060006101000a81549073ffffffffffffffffffffffffffffffffffffffff02191690556001600360008573ffffffffffffffffffffffffffffffffffffffff1673ffffffffffffffffffffffffffffffffffffffff168152602001908152602001600020600082825403925050819055506001600360008473ffffffffffffffffffffffffffffffffffffffff1673ffffffffffffffffffffffffffffffffffffffff16815260200190815260200160002060008282540192505081905550816002600083815260200190815260200160002060006101000a81548173ffffffffffffffffffffffffffffffffffffffff021916908373ffffffffffffffffffffffffffffffffffffffff160217905550808273ffffffffffffffffffffffffffffffffffffffff168473ffffffffffffffffffffffffffffffffffffffff167fddf252ad1be2c89b69c2b068fc378daa952ba7f163c4a11628f55a4df523b3ef60405160405180910390a4611cfe838383600161256e565b505050565b600081600001549050919050565b60006002600083815260200190815260200160002060009054906101000a900473ffffffffffffffffffffffffffffffffffffffff169050919050565b6001816000016000828254019250508190555050565b600073ffffffffffffffffffffffffffffffffffffffff168273ffffffffffffffffffffffffffffffffffffffff1603611dd3576040517f08c379a0000000000000000000000000000000000000000000000000000000008152600401611dca90613a3e565b60405180910390fd5b611ddc81612527565b15611e1c576040517f08c379a0000000000000000000000000000000000000000000000000000000008152600401611e1390613aaa565b60405180910390fd5b611e2a600083836001612568565b611e3381612527565b15611e73576040517f08c379a0000000000000000000000000000000000000000000000000000000008152600401611e6a90613aaa565b60405180910390fd5b6001600360008473ffffffffffffffffffffffffffffffffffffffff1673ffffffffffffffffffffffffffffffffffffffff16815260200190815260200160002060008282540192505081905550816002600083815260200190815260200160002060006101000a81548173ffffffffffffffffffffffffffffffffffffffff021916908373ffffffffffffffffffffffffffffffffffffffff160217905550808273ffffffffffffffffffffffffffffffffffffffff16600073ffffffffffffffffffffffffffffffffffffffff167fddf252ad1be2c89b69c2b068fc378daa952ba7f163c4a11628f55a4df523b3ef60405160405180910390a4611f7d60008383600161256e565b5050565b611f8a82612527565b611fc9576040517f08c379a0000000000000000000000000000000000000000000000000000000008152600401611fc090613b3c565b60405180910390fd5b80600660008481526020019081526020016000209081611fe99190613d08565b505050565b60008111612031576040517f08c379a000000000000000000000000000000000000000000000000000000000815260040161202890613e26565b60405180910390fd5b6009543414612075576040517f08c379a000000000000000000000000000000000000000000000000000000000815260040161206c90613eb8565b60405180910390fd5b6040518060a001604052808381526020013373ffffffffffffffffffffffffffffffffffffffff1681526020013073ffffffffffffffffffffffffffffffffffffffff16815260200182815260200160001515815250600b60008481526020019081526020016000206000820151816000015560208201518160010160006101000a81548173ffffffffffffffffffffffffffffffffffffffff021916908373ffffffffffffffffffffffffffffffffffffffff16021790555060408201518160020160006101000a81548173ffffffffffffffffffffffffffffffffffffffff021916908373ffffffffffffffffffffffffffffffffffffffff1602179055506060820151816003015560808201518160040160006101000a81548160ff0219169083151502179055509050506121ae333084611a0a565b817fdebdb32cb5230ab727c9c361b16fdb2015df225c10e6a3e7f60ecd5dc5be451633308460006040516121e59493929190613ed8565b60405180910390a25050565b6000816000015490506000811161223d576040517f08c379a000000000000000000000000000000000000000000000000000000000815260040161223490613f69565b60405180910390fd5b6001810382600001819055505050565b8173ffffffffffffffffffffffffffffffffffffffff168373ffffffffffffffffffffffffffffffffffffffff16036122bb576040517f08c379a00000000000000000000000000000000000000000000000000000000081526004016122b290613fd5565b60405180910390fd5b80600560008573ffffffffffffffffffffffffffffffffffffffff1673ffffffffffffffffffffffffffffffffffffffff16815260200190815260200160002060008473ffffffffffffffffffffffffffffffffffffffff1673ffffffffffffffffffffffffffffffffffffffff16815260200190815260200160002060006101000a81548160ff0219169083151502179055508173ffffffffffffffffffffffffffffffffffffffff168373ffffffffffffffffffffffffffffffffffffffff167f17307eab39ab6107e8899845ad3d59bd9653f200f220920489ca2b5937696c31836040516123ac9190612acf565b60405180910390a3505050565b6123c4848484611a0a565b6123d084848484612574565b61240f576040517f08c379a000000000000000000000000000000000000000000000000000000000815260040161240690614067565b60405180910390fd5b50505050565b606061242082611869565b60006006600084815260200190815260200160002080546124409061334b565b80601f016020809104026020016040519081016040528092919081815260200182805461246c9061334b565b80156124b95780601f1061248e576101008083540402835291602001916124b9565b820191906000526020600020905b81548152906001019060200180831161249c57829003601f168201915b5050505050905060006124ca6126fb565b905060008151036124df578192505050612522565b6000825111156125145780826040516020016124fc9291906140c3565b60405160208183030381529060405292505050612522565b61251d84612712565b925050505b919050565b60008073ffffffffffffffffffffffffffffffffffffffff1661254983611d11565b73ffffffffffffffffffffffffffffffffffffffff1614159050919050565b50505050565b50505050565b60006125958473ffffffffffffffffffffffffffffffffffffffff1661277a565b156126ee578373ffffffffffffffffffffffffffffffffffffffff1663150b7a026125be6118b4565b8786866040518563ffffffff1660e01b81526004016125e0949392919061413c565b6020604051808303816000875af192505050801561261c57506040513d601f19601f82011682018060405250810190612619919061419d565b60015b61269e573d806000811461264c576040519150601f19603f3d011682016040523d82523d6000602084013e612651565b606091505b506000815103612696576040517f08c379a000000000000000000000000000000000000000000000000000000000815260040161268d90614067565b60405180910390fd5b805181602001fd5b63150b7a0260e01b7bffffffffffffffffffffffffffffffffffffffffffffffffffffffff1916817bffffffffffffffffffffffffffffffffffffffffffffffffffffffff1916149150506126f3565b600190505b949350505050565b606060405180602001604052806000815250905090565b606061271d82611869565b60006127276126fb565b905060008151116127475760405180602001604052806000815250612772565b806127518461279d565b6040516020016127629291906140c3565b6040516020818303038152906040525b915050919050565b6000808273ffffffffffffffffffffffffffffffffffffffff163b119050919050565b6060600060016127ac8461286b565b01905060008167ffffffffffffffff8111156127cb576127ca612ef3565b5b6040519080825280601f01601f1916602001820160405280156127fd5781602001600182028036833780820191505090505b509050600082602001820190505b600115612860578080600190039150507f3031323334353637383961626364656600000000000000000000000000000000600a86061a8153600a8581612854576128536141ca565b5b0494506000850361280b575b819350505050919050565b600080600090507a184f03e93ff9f4daa797ed6e38ed64bf6a1f01000000000000000083106128c9577a184f03e93ff9f4daa797ed6e38ed64bf6a1f01000000000000000083816128bf576128be6141ca565b5b0492506040810190505b6d04ee2d6d415b85acef81000000008310612906576d04ee2d6d415b85acef810000000083816128fc576128fb6141ca565b5b0492506020810190505b662386f26fc10000831061293557662386f26fc10000838161292b5761292a6141ca565b5b0492506010810190505b6305f5e100831061295e576305f5e1008381612954576129536141ca565b5b0492506008810190505b6127108310612983576127108381612979576129786141ca565b5b0492506004810190505b606483106129a6576064838161299c5761299b6141ca565b5b0492506002810190505b600a83106129b5576001810190505b80915050919050565b6040518060a0016040528060008152602001600073ffffffffffffffffffffffffffffffffffffffff168152602001600073ffffffffffffffffffffffffffffffffffffffff168152602001600081526020016000151581525090565b6000604051905090565b600080fd5b600080fd5b60007fffffffff0000000000000000000000000000000000000000000000000000000082169050919050565b612a6481612a2f565b8114612a6f57600080fd5b50565b600081359050612a8181612a5b565b92915050565b600060208284031215612a9d57612a9c612a25565b5b6000612aab84828501612a72565b91505092915050565b60008115159050919050565b612ac981612ab4565b82525050565b6000602082019050612ae46000830184612ac0565b92915050565b6000819050919050565b612afd81612aea565b8114612b0857600080fd5b50565b600081359050612b1a81612af4565b92915050565b600060208284031215612b3657612b35612a25565b5b6000612b4484828501612b0b565b91505092915050565b600081519050919050565b600082825260208201905092915050565b60005b83811015612b87578082015181840152602081019050612b6c565b60008484015250505050565b6000601f19601f8301169050919050565b6000612baf82612b4d565b612bb98185612b58565b9350612bc9818560208601612b69565b612bd281612b93565b840191505092915050565b60006020820190508181036000830152612bf78184612ba4565b905092915050565b600073ffffffffffffffffffffffffffffffffffffffff82169050919050565b6000612c2a82612bff565b9050919050565b612c3a81612c1f565b82525050565b6000602082019050612c556000830184612c31565b92915050565b612c6481612c1f565b8114612c6f57600080fd5b50565b600081359050612c8181612c5b565b92915050565b60008060408385031215612c9e57612c9d612a25565b5b6000612cac85828601612c72565b9250506020612cbd85828601612b0b565b9150509250929050565b612cd081612aea565b82525050565b6000602082019050612ceb6000830184612cc7565b92915050565b600080600060608486031215612d0a57612d09612a25565b5b6000612d1886828701612c72565b9350506020612d2986828701612c72565b9250506040612d3a86828701612b0b565b9150509250925092565b600081519050919050565b600082825260208201905092915050565b6000819050602082019050919050565b612d7981612aea565b82525050565b6000612d8a82612bff565b9050919050565b612d9a81612d7f565b82525050565b612da981612ab4565b82525050565b60a082016000820151612dc56000850182612d70565b506020820151612dd86020850182612d91565b506040820151612deb6040850182612d91565b506060820151612dfe6060850182612d70565b506080820151612e116080850182612da0565b50505050565b6000612e238383612daf565b60a08301905092915050565b6000602082019050919050565b6000612e4782612d44565b612e518185612d4f565b9350612e5c83612d60565b8060005b83811015612e8d578151612e748882612e17565b9750612e7f83612e2f565b925050600181019050612e60565b5085935050505092915050565b60006020820190508181036000830152612eb48184612e3c565b905092915050565b600060208284031215612ed257612ed1612a25565b5b6000612ee084828501612c72565b91505092915050565b600080fd5b600080fd5b7f4e487b7100000000000000000000000000000000000000000000000000000000600052604160045260246000fd5b612f2b82612b93565b810181811067ffffffffffffffff82111715612f4a57612f49612ef3565b5b80604052505050565b6000612f5d612a1b565b9050612f698282612f22565b919050565b600067ffffffffffffffff821115612f8957612f88612ef3565b5b612f9282612b93565b9050602081019050919050565b82818337600083830152505050565b6000612fc1612fbc84612f6e565b612f53565b905082815260208101848484011115612fdd57612fdc612eee565b5b612fe8848285612f9f565b509392505050565b600082601f83011261300557613004612ee9565b5b8135613015848260208601612fae565b91505092915050565b6000806040838503121561303557613034612a25565b5b600083013567ffffffffffffffff81111561305357613052612a2a565b5b61305f85828601612ff0565b925050602061307085828601612b0b565b9150509250929050565b6000806040838503121561309157613090612a25565b5b600061309f85828601612b0b565b92505060206130b085828601612b0b565b9150509250929050565b6130c381612ab4565b81146130ce57600080fd5b50565b6000813590506130e0816130ba565b92915050565b600080604083850312156130fd576130fc612a25565b5b600061310b85828601612c72565b925050602061311c858286016130d1565b9150509250929050565b600067ffffffffffffffff82111561314157613140612ef3565b5b61314a82612b93565b9050602081019050919050565b600061316a61316584613126565b612f53565b90508281526020810184848401111561318657613185612eee565b5b613191848285612f9f565b509392505050565b600082601f8301126131ae576131ad612ee9565b5b81356131be848260208601613157565b91505092915050565b600080600080608085870312156131e1576131e0612a25565b5b60006131ef87828801612c72565b945050602061320087828801612c72565b935050604061321187828801612b0b565b925050606085013567ffffffffffffffff81111561323257613231612a2a565b5b61323e87828801613199565b91505092959194509250565b6000806040838503121561326157613260612a25565b5b600061326f85828601612c72565b925050602061328085828601612c72565b9150509250929050565b7f6f6e6c79206f776e6572206f6620746865206d61726b6574706c61636520636160008201527f6e206368616e676520746865206c697374696e67207072696365000000000000602082015250565b60006132e6603a83612b58565b91506132f18261328a565b604082019050919050565b60006020820190508181036000830152613315816132d9565b9050919050565b7f4e487b7100000000000000000000000000000000000000000000000000000000600052602260045260246000fd5b6000600282049050600182168061336357607f821691505b6020821081036133765761337561331c565b5b50919050565b7f4552433732313a20617070726f76616c20746f2063757272656e74206f776e6560008201527f7200000000000000000000000000000000000000000000000000000000000000602082015250565b60006133d8602183612b58565b91506133e38261337c565b604082019050919050565b60006020820190508181036000830152613407816133cb565b9050919050565b7f4552433732313a20617070726f76652063616c6c6572206973206e6f7420746f60008201527f6b656e206f776e6572206f7220617070726f76656420666f7220616c6c000000602082015250565b600061346a603d83612b58565b91506134758261340e565b604082019050919050565b600060208201905081810360008301526134998161345d565b9050919050565b7f4552433732313a2063616c6c6572206973206e6f7420746f6b656e206f776e6560008201527f72206f7220617070726f76656400000000000000000000000000000000000000602082015250565b60006134fc602d83612b58565b9150613507826134a0565b604082019050919050565b6000602082019050818103600083015261352b816134ef565b9050919050565b7f4e487b7100000000000000000000000000000000000000000000000000000000600052601160045260246000fd5b600061356c82612aea565b915061357783612aea565b925082820190508082111561358f5761358e613532565b5b92915050565b60006135a082612aea565b91507fffffffffffffffffffffffffffffffffffffffffffffffffffffffffffffffff82036135d2576135d1613532565b5b600182019050919050565b7f4e487b7100000000000000000000000000000000000000000000000000000000600052603260045260246000fd5b7f4552433732313a20696e76616c696420746f6b656e2049440000000000000000600082015250565b6000613642601883612b58565b915061364d8261360c565b602082019050919050565b6000602082019050818103600083015261367181613635565b9050919050565b7f4552433732313a2061646472657373207a65726f206973206e6f74206120766160008201527f6c6964206f776e65720000000000000000000000000000000000000000000000602082015250565b60006136d4602983612b58565b91506136df82613678565b604082019050919050565b60006020820190508181036000830152613703816136c7565b9050919050565b7f4f6e6c79206974656d206f776e65722063616e20706572666f726d207468697360008201527f206f7065726174696f6e00000000000000000000000000000000000000000000602082015250565b6000613766602a83612b58565b91506137718261370a565b604082019050919050565b6000602082019050818103600083015261379581613759565b9050919050565b7f5072696365206d75737420626520657175616c20746f206c697374696e670000600082015250565b60006137d2601e83612b58565b91506137dd8261379c565b602082019050919050565b60006020820190508181036000830152613801816137c5565b9050919050565b600061381382612aea565b915061381e83612aea565b925082820390508181111561383657613835613532565b5b92915050565b7f706c65617365207375626d6974207468652061736b696e67207072696365206960008201527f6e206f7264657220746f20636f6d706c65746520707572636861736500000000602082015250565b6000613898603c83612b58565b91506138a38261383c565b604082019050919050565b600060208201905081810360008301526138c78161388b565b9050919050565b7f4552433732313a207472616e736665722066726f6d20696e636f72726563742060008201527f6f776e6572000000000000000000000000000000000000000000000000000000602082015250565b600061392a602583612b58565b9150613935826138ce565b604082019050919050565b600060208201905081810360008301526139598161391d565b9050919050565b7f4552433732313a207472616e7366657220746f20746865207a65726f2061646460008201527f7265737300000000000000000000000000000000000000000000000000000000602082015250565b60006139bc602483612b58565b91506139c782613960565b604082019050919050565b600060208201905081810360008301526139eb816139af565b9050919050565b7f4552433732313a206d696e7420746f20746865207a65726f2061646472657373600082015250565b6000613a28602083612b58565b9150613a33826139f2565b602082019050919050565b60006020820190508181036000830152613a5781613a1b565b9050919050565b7f4552433732313a20746f6b656e20616c7265616479206d696e74656400000000600082015250565b6000613a94601c83612b58565b9150613a9f82613a5e565b602082019050919050565b60006020820190508181036000830152613ac381613a87565b9050919050565b7f45524337323155524953746f726167653a2055524920736574206f66206e6f6e60008201527f6578697374656e7420746f6b656e000000000000000000000000000000000000602082015250565b6000613b26602e83612b58565b9150613b3182613aca565b604082019050919050565b60006020820190508181036000830152613b5581613b19565b9050919050565b60008190508160005260206000209050919050565b60006020601f8301049050919050565b600082821b905092915050565b600060088302613bbe7fffffffffffffffffffffffffffffffffffffffffffffffffffffffffffffffff82613b81565b613bc88683613b81565b95508019841693508086168417925050509392505050565b6000819050919050565b6000613c05613c00613bfb84612aea565b613be0565b612aea565b9050919050565b6000819050919050565b613c1f83613bea565b613c33613c2b82613c0c565b848454613b8e565b825550505050565b600090565b613c48613c3b565b613c53818484613c16565b505050565b5b81811015613c7757613c6c600082613c40565b600181019050613c59565b5050565b601f821115613cbc57613c8d81613b5c565b613c9684613b71565b81016020851015613ca5578190505b613cb9613cb185613b71565b830182613c58565b50505b505050565b600082821c905092915050565b6000613cdf60001984600802613cc1565b1980831691505092915050565b6000613cf88383613cce565b9150826002028217905092915050565b613d1182612b4d565b67ffffffffffffffff811115613d2a57613d29612ef3565b5b613d34825461334b565b613d3f828285613c7b565b600060209050601f831160018114613d725760008415613d60578287015190505b613d6a8582613cec565b865550613dd2565b601f198416613d8086613b5c565b60005b82811015613da857848901518255600182019150602085019450602081019050613d83565b86831015613dc55784890151613dc1601f891682613cce565b8355505b6001600288020188555050505b505050505050565b7f7072696365206d757374206265206174206c6561737420300000000000000000600082015250565b6000613e10601883612b58565b9150613e1b82613dda565b602082019050919050565b60006020820190508181036000830152613e3f81613e03565b9050919050565b7f7072696365206d75737420626520657175616c20746f206c697374696e67507260008201527f6963650000000000000000000000000000000000000000000000000000000000602082015250565b6000613ea2602383612b58565b9150613ead82613e46565b604082019050919050565b60006020820190508181036000830152613ed181613e95565b9050919050565b6000608082019050613eed6000830187612c31565b613efa6020830186612c31565b613f076040830185612cc7565b613f146060830184612ac0565b95945050505050565b7f436f756e7465723a2064656372656d656e74206f766572666c6f770000000000600082015250565b6000613f53601b83612b58565b9150613f5e82613f1d565b602082019050919050565b60006020820190508181036000830152613f8281613f46565b9050919050565b7f4552433732313a20617070726f766520746f2063616c6c657200000000000000600082015250565b6000613fbf601983612b58565b9150613fca82613f89565b602082019050919050565b60006020820190508181036000830152613fee81613fb2565b9050919050565b7f4552433732313a207472616e7366657220746f206e6f6e20455243373231526560008201527f63656976657220696d706c656d656e7465720000000000000000000000000000602082015250565b6000614051603283612b58565b915061405c82613ff5565b604082019050919050565b6000602082019050818103600083015261408081614044565b9050919050565b600081905092915050565b600061409d82612b4d565b6140a78185614087565b93506140b7818560208601612b69565b80840191505092915050565b60006140cf8285614092565b91506140db8284614092565b91508190509392505050565b600081519050919050565b600082825260208201905092915050565b600061410e826140e7565b61411881856140f2565b9350614128818560208601612b69565b61413181612b93565b840191505092915050565b60006080820190506141516000830187612c31565b61415e6020830186612c31565b61416b6040830185612cc7565b818103606083015261417d8184614103565b905095945050505050565b60008151905061419781612a5b565b92915050565b6000602082840312156141b3576141b2612a25565b5b60006141c184828501614188565b91505092915050565b7f4e487b7100000000000000000000000000000000000000000000000000000000600052601260045260246000fdfea264697066735822122049a4fef88dccc2eec9dda1a011f1d0c4ec44bd587ea4d48b8b6c6cb46e17e64764736f6c63430008120033",
  "linkReferences": {},
  "deployedLinkReferences": {}
}