{
  "_format": "hh-sol-artifact-1",
  "contractName": "TransferFunds",
  "sourceName": "contracts/TransferFunds.sol",
  "abi": [
    {
      "anonymous": false,
      "inputs": [
        {
          "indexed": false,
          "internalType": "address",
          "name": "from",
          "type": "address"
        },
        {
          "indexed": false,
          "internalType": "address",
          "name": "receiver",
          "type": "address"
        },
        {
          "indexed": false,
          "internalType": "uint256",
          "name": "amount",
          "type": "uint256"
        },
        {
          "indexed": false,
          "internalType": "string",
          "name": "message",
          "type": "string"
        },
        {
          "indexed": false,
          "internalType": "uint256",
          "name": "timestamp",
          "type": "uint256"
        }
      ],
      "name": "TransferEvent",
      "type": "event"
    },
    {
      "inputs": [
        {
          "internalType": "address",
          "name": "receiver",
          "type": "address"
        },
        {
          "internalType": "uint256",
          "name": "amount",
          "type": "uint256"
        },
        {
          "internalType": "string",
          "name": "message",
          "type": "string"
        }
      ],
      "name": "addDataToBlockchain",
      "outputs": [],
      "stateMutability": "nonpayable",
      "type": "function"
    },
    {
      "inputs": [],
      "name": "getAllTransactions",
      "outputs": [
        {
          "components": [
            {
              "internalType": "address",
              "name": "sender",
              "type": "address"
            },
            {
              "internalType": "address",
              "name": "receiver",
              "type": "address"
            },
            {
              "internalType": "uint256",
              "name": "amount",
              "type": "uint256"
            },
            {
              "internalType": "string",
              "name": "message",
              "type": "string"
            },
            {
              "internalType": "uint256",
              "name": "timestamp",
              "type": "uint256"
            }
          ],
          "internalType": "struct TransferFunds.TransferFundsStruck[]",
          "name": "",
          "type": "tuple[]"
        }
      ],
      "stateMutability": "view",
      "type": "function"
    },
    {
      "inputs": [
        {
          "internalType": "uint256",
          "name": "index",
          "type": "uint256"
        }
      ],
      "name": "getTransaction",
      "outputs": [
        {
          "components": [
            {
              "internalType": "address",
              "name": "sender",
              "type": "address"
            },
            {
              "internalType": "address",
              "name": "receiver",
              "type": "address"
            },
            {
              "internalType": "uint256",
              "name": "amount",
              "type": "uint256"
            },
            {
              "internalType": "string",
              "name": "message",
              "type": "string"
            },
            {
              "internalType": "uint256",
              "name": "timestamp",
              "type": "uint256"
            }
          ],
          "internalType": "struct TransferFunds.TransferFundsStruck",
          "name": "",
          "type": "tuple"
        }
      ],
      "stateMutability": "view",
      "type": "function"
    },
    {
      "inputs": [],
      "name": "getTransactionCount",
      "outputs": [
        {
          "internalType": "uint256",
          "name": "",
          "type": "uint256"
        }
      ],
      "stateMutability": "view",
      "type": "function"
    },
    {
      "inputs": [
        {
          "internalType": "address",
          "name": "receiver",
          "type": "address"
        },
        {
          "internalType": "uint256",
          "name": "amount",
          "type": "uint256"
        },
        {
          "internalType": "string",
          "name": "message",
          "type": "string"
        }
      ],
      "name": "transferFunds",
      "outputs": [],
      "stateMutability": "nonpayable",
      "type": "function"
    }
  ],
  "bytecode": "0x608060405234801561001057600080fd5b506112e1806100206000396000f3fe608060405234801561001057600080fd5b50600436106100575760003560e01c806327506f531461005c5780632e7700f01461007a57806333ea3dc8146100985780633a0a0733146100c857806358a6f9ba146100e4575b600080fd5b610064610100565b6040516100719190610b1f565b60405180910390f35b6100826102b1565b60405161008f9190610b50565b60405180910390f35b6100b260048036038101906100ad9190610bab565b6102ba565b6040516100bf9190610c4e565b60405180910390f35b6100e260048036038101906100dd9190610dd1565b610448565b005b6100fe60048036038101906100f99190610dd1565b6105dd565b005b60606001805480602002602001604051908101604052809291908181526020016000905b828210156102a857838290600052602060002090600502016040518060a00160405290816000820160009054906101000a900473ffffffffffffffffffffffffffffffffffffffff1673ffffffffffffffffffffffffffffffffffffffff1673ffffffffffffffffffffffffffffffffffffffff1681526020016001820160009054906101000a900473ffffffffffffffffffffffffffffffffffffffff1673ffffffffffffffffffffffffffffffffffffffff1673ffffffffffffffffffffffffffffffffffffffff1681526020016002820154815260200160038201805461020d90610e6f565b80601f016020809104026020016040519081016040528092919081815260200182805461023990610e6f565b80156102865780601f1061025b57610100808354040283529160200191610286565b820191906000526020600020905b81548152906001019060200180831161026957829003601f168201915b5050505050815260200160048201548152505081526020019060010190610124565b50505050905090565b60008054905090565b6102c26108a2565b600182815481106102d6576102d5610ea0565b5b90600052602060002090600502016040518060a00160405290816000820160009054906101000a900473ffffffffffffffffffffffffffffffffffffffff1673ffffffffffffffffffffffffffffffffffffffff1673ffffffffffffffffffffffffffffffffffffffff1681526020016001820160009054906101000a900473ffffffffffffffffffffffffffffffffffffffff1673ffffffffffffffffffffffffffffffffffffffff1673ffffffffffffffffffffffffffffffffffffffff168152602001600282015481526020016003820180546103b590610e6f565b80601f01602080910402602001604051908101604052809291908181526020018280546103e190610e6f565b801561042e5780601f106104035761010080835404028352916020019161042e565b820191906000526020600020905b81548152906001019060200180831161041157829003601f168201915b505050505081526020016004820154815250509050919050565b600160008082825461045a9190610efe565b9250508190555060016040518060a001604052803373ffffffffffffffffffffffffffffffffffffffff1681526020018573ffffffffffffffffffffffffffffffffffffffff16815260200184815260200183815260200142815250908060018154018082558091505060019003906000526020600020906005020160009091909190915060008201518160000160006101000a81548173ffffffffffffffffffffffffffffffffffffffff021916908373ffffffffffffffffffffffffffffffffffffffff16021790555060208201518160010160006101000a81548173ffffffffffffffffffffffffffffffffffffffff021916908373ffffffffffffffffffffffffffffffffffffffff16021790555060408201518160020155606082015181600301908161058c91906110de565b506080820151816004015550507f3cf6265a3418fd153ac0fad02c457db25dda3d9006869d68880a17c525b626b333848484426040516105d0959493929190611209565b60405180910390a1505050565b6040518060a001604052803373ffffffffffffffffffffffffffffffffffffffff1681526020018473ffffffffffffffffffffffffffffffffffffffff1681526020018381526020018281526020014281525060016000548154811061064657610645610ea0565b5b906000526020600020906005020160008201518160000160006101000a81548173ffffffffffffffffffffffffffffffffffffffff021916908373ffffffffffffffffffffffffffffffffffffffff16021790555060208201518160010160006101000a81548173ffffffffffffffffffffffffffffffffffffffff021916908373ffffffffffffffffffffffffffffffffffffffff16021790555060408201518160020155606082015181600301908161070191906110de565b506080820151816004015590505060008081548092919061072190611263565b919050555060016040518060a001604052803373ffffffffffffffffffffffffffffffffffffffff1681526020018573ffffffffffffffffffffffffffffffffffffffff16815260200184815260200183815260200142815250908060018154018082558091505060019003906000526020600020906005020160009091909190915060008201518160000160006101000a81548173ffffffffffffffffffffffffffffffffffffffff021916908373ffffffffffffffffffffffffffffffffffffffff16021790555060208201518160010160006101000a81548173ffffffffffffffffffffffffffffffffffffffff021916908373ffffffffffffffffffffffffffffffffffffffff16021790555060408201518160020155606082015181600301908161085191906110de565b506080820151816004015550507f3cf6265a3418fd153ac0fad02c457db25dda3d9006869d68880a17c525b626b33384848442604051610895959493929190611209565b60405180910390a1505050565b6040518060a00160405280600073ffffffffffffffffffffffffffffffffffffffff168152602001600073ffffffffffffffffffffffffffffffffffffffff1681526020016000815260200160608152602001600081525090565b600081519050919050565b600082825260208201905092915050565b6000819050602082019050919050565b600073ffffffffffffffffffffffffffffffffffffffff82169050919050565b600061095482610929565b9050919050565b61096481610949565b82525050565b6000819050919050565b61097d8161096a565b82525050565b600081519050919050565b600082825260208201905092915050565b60005b838110156109bd5780820151818401526020810190506109a2565b60008484015250505050565b6000601f19601f8301169050919050565b60006109e582610983565b6109ef818561098e565b93506109ff81856020860161099f565b610a08816109c9565b840191505092915050565b600060a083016000830151610a2b600086018261095b565b506020830151610a3e602086018261095b565b506040830151610a516040860182610974565b5060608301518482036060860152610a6982826109da565b9150506080830151610a7e6080860182610974565b508091505092915050565b6000610a958383610a13565b905092915050565b6000602082019050919050565b6000610ab5826108fd565b610abf8185610908565b935083602082028501610ad185610919565b8060005b85811015610b0d5784840389528151610aee8582610a89565b9450610af983610a9d565b925060208a01995050600181019050610ad5565b50829750879550505050505092915050565b60006020820190508181036000830152610b398184610aaa565b905092915050565b610b4a8161096a565b82525050565b6000602082019050610b656000830184610b41565b92915050565b6000604051905090565b600080fd5b600080fd5b610b888161096a565b8114610b9357600080fd5b50565b600081359050610ba581610b7f565b92915050565b600060208284031215610bc157610bc0610b75565b5b6000610bcf84828501610b96565b91505092915050565b600060a083016000830151610bf0600086018261095b565b506020830151610c03602086018261095b565b506040830151610c166040860182610974565b5060608301518482036060860152610c2e82826109da565b9150506080830151610c436080860182610974565b508091505092915050565b60006020820190508181036000830152610c688184610bd8565b905092915050565b610c7981610949565b8114610c8457600080fd5b50565b600081359050610c9681610c70565b92915050565b600080fd5b600080fd5b7f4e487b7100000000000000000000000000000000000000000000000000000000600052604160045260246000fd5b610cde826109c9565b810181811067ffffffffffffffff82111715610cfd57610cfc610ca6565b5b80604052505050565b6000610d10610b6b565b9050610d1c8282610cd5565b919050565b600067ffffffffffffffff821115610d3c57610d3b610ca6565b5b610d45826109c9565b9050602081019050919050565b82818337600083830152505050565b6000610d74610d6f84610d21565b610d06565b905082815260208101848484011115610d9057610d8f610ca1565b5b610d9b848285610d52565b509392505050565b600082601f830112610db857610db7610c9c565b5b8135610dc8848260208601610d61565b91505092915050565b600080600060608486031215610dea57610de9610b75565b5b6000610df886828701610c87565b9350506020610e0986828701610b96565b925050604084013567ffffffffffffffff811115610e2a57610e29610b7a565b5b610e3686828701610da3565b9150509250925092565b7f4e487b7100000000000000000000000000000000000000000000000000000000600052602260045260246000fd5b60006002820490506001821680610e8757607f821691505b602082108103610e9a57610e99610e40565b5b50919050565b7f4e487b7100000000000000000000000000000000000000000000000000000000600052603260045260246000fd5b7f4e487b7100000000000000000000000000000000000000000000000000000000600052601160045260246000fd5b6000610f098261096a565b9150610f148361096a565b9250828201905080821115610f2c57610f2b610ecf565b5b92915050565b60008190508160005260206000209050919050565b60006020601f8301049050919050565b600082821b905092915050565b600060088302610f947fffffffffffffffffffffffffffffffffffffffffffffffffffffffffffffffff82610f57565b610f9e8683610f57565b95508019841693508086168417925050509392505050565b6000819050919050565b6000610fdb610fd6610fd18461096a565b610fb6565b61096a565b9050919050565b6000819050919050565b610ff583610fc0565b61100961100182610fe2565b848454610f64565b825550505050565b600090565b61101e611011565b611029818484610fec565b505050565b5b8181101561104d57611042600082611016565b60018101905061102f565b5050565b601f8211156110925761106381610f32565b61106c84610f47565b8101602085101561107b578190505b61108f61108785610f47565b83018261102e565b50505b505050565b600082821c905092915050565b60006110b560001984600802611097565b1980831691505092915050565b60006110ce83836110a4565b9150826002028217905092915050565b6110e782610983565b67ffffffffffffffff811115611100576110ff610ca6565b5b61110a8254610e6f565b611115828285611051565b600060209050601f8311600181146111485760008415611136578287015190505b61114085826110c2565b8655506111a8565b601f19841661115686610f32565b60005b8281101561117e57848901518255600182019150602085019450602081019050611159565b8683101561119b5784890151611197601f8916826110a4565b8355505b6001600288020188555050505b505050505050565b6111b981610949565b82525050565b600082825260208201905092915050565b60006111db82610983565b6111e581856111bf565b93506111f581856020860161099f565b6111fe816109c9565b840191505092915050565b600060a08201905061121e60008301886111b0565b61122b60208301876111b0565b6112386040830186610b41565b818103606083015261124a81856111d0565b90506112596080830184610b41565b9695505050505050565b600061126e8261096a565b91507fffffffffffffffffffffffffffffffffffffffffffffffffffffffffffffffff82036112a05761129f610ecf565b5b60018201905091905056fea26469706673582212206811a2d6d2e005455e1ef10ba975a237c55177f42966184aac018d4d8b6f1a2964736f6c63430008120033",
  "linkReferences": {},
  "deployedLinkReferences": {}
}